:020000040000fa
:080000000002040000000000f2
:020000040000fa
:040008007606000078
:020000040000fa
:04000c007606000074
:020000040000fa
:040010007606000070
:020000040000fa
:04001400760600006c
:020000040000fa
:040018007606000068
:020000040000fa
:04001c007606000064
:020000040000fa
:040020007606000060
:020000040000fa
:04002400760600005c
:020000040000fa
:04002800c80200000a
:020000040000fa
:04002c007606000054
:020000040000fa
:040030007606000050
:020000040000fa
:04003400760600004c
:020000040000fa
:040038007606000048
:020000040000fa
:04003c007606000044
:020000040000fa
:040040007606000040
:020000040000fa
:04004400760600003c
:020000040000fa
:040048007606000038
:020000040000fa
:04004c007606000034
:020000040000fa
:040050007606000030
:020000040000fa
:04005400760600002c
:020000040000fa
:040058007606000028
:020000040000fa
:04005c007606000024
:020000040000fa
:040060007606000020
:020000040000fa
:04006400760600001c
:020000040000fa
:040068007606000018
:020000040000fa
:04006c007606000014
:020000040000fa
:040070007606000010
:020000040000fa
:04007400760600000c
:020000040000fa
:040078007606000008
:020000040000fa
:04007c007606000004
:020000040000fa
:040080007606000000
:020000040000fa
:0400840076060000fc
:020000040000fa
:0400880076060000f8
:020000040000fa
:04008c0076060000f4
:020000040000fa
:0400900076060000f0
:020000040000fa
:0400940076060000ec
:020000040000fa
:0400980076060000e8
:020000040000fa
:04009c0076060000e4
:020000040000fa
:0400a00076060000e0
:020000040000fa
:0400a40076060000dc
:020000040000fa
:0400a80076060000d8
:020000040000fa
:0400ac0076060000d4
:020000040000fa
:0400b00076060000d0
:020000040000fa
:0400b40076060000cc
:020000040000fa
:0400b80076060000c8
:020000040000fa
:0400bc0076060000c4
:020000040000fa
:0400c00076060000c0
:020000040000fa
:0400c40076060000bc
:020000040000fa
:0400c80076060000b8
:020000040000fa
:0400cc0076060000b4
:020000040000fa
:0400d00076060000b0
:020000040000fa
:0400d40076060000ac
:020000040000fa
:0400d80076060000a8
:020000040000fa
:0400dc0076060000a4
:020000040000fa
:0400e00076060000a0
:020000040000fa
:0400e400760600009c
:020000040000fa
:0400e8007606000098
:020000040000fa
:0400ec007606000094
:020000040000fa
:0400f0007606000090
:020000040000fa
:0400f400760600008c
:020000040000fa
:0400f8007606000088
:020000040000fa
:0400fc007606000084
:020000040000fa
:04010000760600007f
:020000040000fa
:04010400760600007b
:020000040000fa
:040108007606000077
:020000040000fa
:04010c007606000073
:020000040000fa
:04011000760600006f
:020000040000fa
:04011400760600006b
:020000040000fa
:040118007606000067
:020000040000fa
:04011c007606000063
:020000040000fa
:04012000760600005f
:020000040000fa
:04012400760600005b
:020000040000fa
:040128007606000057
:020000040000fa
:04012c007606000053
:020000040000fa
:04013000760600004f
:020000040000fa
:04013400760600004b
:020000040000fa
:040138007606000047
:020000040000fa
:04013c007606000043
:020000040000fa
:04014000760600003f
:020000040000fa
:04014400760600003b
:020000040000fa
:040148007606000037
:020000040000fa
:040208007606000076
:020000040000fa
:04020c007606000072
:020000040000fa
:04021000760600006e
:020000040000fa
:04021400760600006a
:020000040000fa
:040218007606000066
:020000040000fa
:04021c007606000062
:020000040000fa
:04022000760600005e
:020000040000fa
:04022400760600005a
:020000040000fa
:04022800c802000008
:020000040000fa
:04022c007606000052
:020000040000fa
:04023000760600004e
:020000040000fa
:04023400760600004a
:020000040000fa
:040238007606000046
:020000040000fa
:04023c007606000042
:020000040000fa
:04024000760600003e
:020000040000fa
:04024400760600003a
:020000040000fa
:040248007606000036
:020000040000fa
:04024c007606000032
:020000040000fa
:04025000760600002e
:020000040000fa
:04025400760600002a
:020000040000fa
:040258007606000026
:020000040000fa
:04025c007606000022
:020000040000fa
:04026000760600001e
:020000040000fa
:04026400760600001a
:020000040000fa
:040268007606000016
:020000040000fa
:04026c007606000012
:020000040000fa
:04027000760600000e
:020000040000fa
:04027400760600000a
:020000040000fa
:040278007606000006
:020000040000fa
:04027c007606000002
:020000040000fa
:0402800076060000fe
:020000040000fa
:0402840076060000fa
:020000040000fa
:0402880076060000f6
:020000040000fa
:04028c0076060000f2
:020000040000fa
:0402900076060000ee
:020000040000fa
:0402940076060000ea
:020000040000fa
:0402980076060000e6
:020000040000fa
:04029c0076060000e2
:020000040000fa
:0402a00076060000de
:020000040000fa
:0402a40076060000da
:020000040000fa
:0402a80076060000d6
:020000040000fa
:0402ac0076060000d2
:020000040000fa
:0402b00076060000ce
:020000040000fa
:0402b40076060000ca
:020000040000fa
:0402b80076060000c6
:020000040000fa
:0402bc0076060000c2
:020000040000fa
:0402c00076060000be
:020000040000fa
:0402c40076060000ba
:020000040000fa
:0402c80076060000b6
:020000040000fa
:0402cc0076060000b2
:020000040000fa
:0402d00076060000ae
:020000040000fa
:0402d40076060000aa
:020000040000fa
:0402d80076060000a6
:020000040000fa
:0402dc0076060000a2
:020000040000fa
:0402e000760600009e
:020000040000fa
:0402e400760600009a
:020000040000fa
:0402e8007606000096
:020000040000fa
:0402ec007606000092
:020000040000fa
:0402f000760600008e
:020000040000fa
:0402f400760600008a
:020000040000fa
:0402f8007606000086
:020000040000fa
:0402fc007606000082
:020000040000fa
:04030000760600007d
:020000040000fa
:040304007606000079
:020000040000fa
:040308007606000075
:020000040000fa
:04030c007606000071
:020000040000fa
:04031000760600006d
:020000040000fa
:040314007606000069
:020000040000fa
:040318007606000065
:020000040000fa
:04031c007606000061
:020000040000fa
:04032000760600005d
:020000040000fa
:040324007606000059
:020000040000fa
:040328007606000055
:020000040000fa
:04032c007606000051
:020000040000fa
:04033000760600004d
:020000040000fa
:040334007606000049
:020000040000fa
:040338007606000045
:020000040000fa
:04033c007606000041
:020000040000fa
:04034000760600003d
:020000040000fa
:040344007606000039
:020000040000fa
:040348007606000035
:020000040000fa
:10040000cf8620000e7f22000e0188000000000031
:10041000000020000000e000020032000001200087
:100420002002880014000700320207000000e000ec
:1004300003003a00c0a7200001002000020037009e
:100440000000200001002000810f70000100320038
:1004500014000700000020000000e000020032004d
:100460000000020000000000b207020000000000cf
:100470000040da000000fe004440a9000000200017
:100480000000e0000300320000002000a00188000e
:100490004440a800000006008a1f78008b1f7800e7
:1004a0000000060091018800800478000000eb0045
:1004b0001a003700e284440032a0b4009905ba0063
:1004c000e284440032a0b4009906ba00e2844400f9
:1004d00032a0b4000006eb00476fde00fd07b2005b
:1004e000636ce10003003a00ebff07000000eb0043
:1004f0000a003700606ce10004003a00005deb0088
:100500008b05e900fdff3e00040037006168e10053
:10051000010032000086eb000b00070019c7ba008b
:100520001905ba000e04e00003003a000a00e000da
:10053000e0ff3a0000000600fe07b2009e018800be
:100540008a047800f5ff3700395dba008b05e900b1
:100550000c003200295dba008b05e900080032006a
:100560000c00e00003003a00e284440032a0b40032
:10057000f5ff370019ddba008b05e900faff3a00f4
:100580008904e800e184440032a0b40000000600c1
:100590003600f800809fbe00829fbe00849fbe0090
:1005a000869fbe003400f80000002000a0018800f3
:1005b00020032000f50107000028ec000040800027
:1005c000ed0f5000010034000028ef000008e200a9
:1005d00019003a006000200001002000404088001f
:1005e00051408800f4ff2f00f50f20006440880080
:1005f00075408800626626006306200082408800fd
:1006000093408800f0ff2f0061062000a040880082
:10061000b1408800c4408800d5408800e24088008e
:10062000f3408800004188001141880050002000fc
:10063000304088006901370000408000e10f500021
:1006400019003a00600020000100200040408800ae
:100650005140880004002000f50f2000644088000d
:100660007540880002f02f000300200082408800bf
:1006700093408800f0ff2f00f10f2000a040880079
:10068000b1408800c4408800d5408800e24088001e
:10069000f34088000041880011418800500020008c
:1006a000304088004d01370000408000e20f5000cc
:1006b00019003a006000200001002000404088003e
:1006c00051408800c40c2000c50c20006440880004
:1006d0007540880032f32f00f30f2000824088001d
:1006e00093408800f0ff2f00f10f2000a040880009
:1006f000b1408800c4408800d5408800e2408800ae
:10070000f34088000041880011418800500020001b
:10071000304088003101370000408000e30f500076
:1007200019003a00600020000100200040408800cd
:100730005140880004002000f50f2000644088002c
:1007400075408800f2072000f30f200082408800e7
:1007500093408800f0ff2f00f10f2000a040880098
:10076000b1408800c4408800d5408800e24088003d
:10077000f3408800004188001141880050002000ab
:10078000304088001501370000408000e40f500021
:100790001c003a004000200001002000404088007a
:1007a0005140880060f62f006106200060408800fc
:1007b00071408800206b2600f10f200080408800e7
:1007c0009140880060f62f00f10f2000a0408800c3
:1007d000b1408800f0ff2f0061062000c040880073
:1007e000d14088006000b800e0408800f1408800f7
:1007f00000418800114188005000200030408800ee
:10080000f600370000408000e50f500017003a0066
:100810006000200001002000404088005140880016
:10082000f2ff2f00f30f2000624088007340880021
:1008300000f02f00010020008040880091408800d7
:10084000a2408800b3408800c0408800d1408800a2
:10085000e2408800f3408800004188001141880090
:100860005000200030408800dc003700004080004d
:10087000e60f500017003a00600020000100200041
:10088000404088005140880062f62f006306200037
:10089000624088007340880000f02f00f10f2000b4
:1008a0008040880091408800a2408800b3408800c2
:1008b000c0408800d1408800e2408800f3408800b2
:1008c000004188001141880050002000304088001d
:1008d000c200370000408000e70f500017003a00c8
:1008e0006000200001002000404088005140880046
:1008f00002602600030020006240880073408800e8
:1009000000f02f00f10f2000804088009140880007
:10091000a2408800b3408800c0408800d1408800d1
:10092000e2408800f34088000041880011418800bf
:100930005000200030408800a800370000408000b0
:10094000e80f500019003a0060002000010020006c
:10095000404088005140880004002000f50f20002e
:100960006440880075408800f2ff2f00f30f2000dc
:100970008240880093408800f00f20000100200092
:10098000a0408800b1408800c4408800d54088005d
:10099000e2408800f340880000418800114188004f
:1009a00050002000304088008c003700004080005c
:1009b000e90f500019003a006000200001002000fb
:1009c000404088005140880004602600c50c20008b
:1009d000644088007540880002f02f00f30f20006b
:1009e0008240880093408800003023006106200088
:1009f000a0408800b1408800c4408800d5408800ed
:100a0000e2408800f34088000041880011418800de
:100a10005000200030408800700037000040800007
:100a2000ea0f50001c003a004000200001002000a6
:100a3000404088005140880000602600c10c200022
:100a400060408800714088000008280001082000ec
:100a500080408800914088000090210031032000f0
:100a6000a0408800b14088000060260001002000fe
:100a7000c0408800d14088006000b800e040880095
:100a8000f14088000041880011418800500020009a
:100a9000304088005100370000408000eb0f5000cc
:100aa00015003a006000200001002000404088004e
:100ab00051408800f0ff2f00f10f200060408800b7
:100ac000714088008040880091408800a0408800e4
:100ad000b1408800c0408800d1408800e0408800d4
:100ae000f14088000041880011418800600020002a
:100af000304088003900370000408000ec0f500083
:100b000015003a00600020000100200040408800ed
:100b10005140880000f02f00f10f20006040880055
:100b2000714088008040880091408800a040880083
:100b3000b1408800c0408800d1408800e040880073
:100b4000f1408800004188001141880060002000c9
:100b5000304088002100370000408000ed0f500039
:100b60001e003a0060002000010020004040880084
:100b70005140880000002000f10f200060408800f4
:100b80007140880000f02f000100200080408800a4
:100b900091408800f00f200001002000a040880054
:100ba000b1408800f0ff2f0001002000c040880005
:100bb000d1408800f00f2000f10f2000e0408800b5
:100bc000f140880000f02f00f10f20000041880064
:100bd00011418800600020003040880060408000a3
:100be00071408000ce00070080408000914080006e
:100bf000cb000700a0408000b1408000c800070083
:100c0000c0408000d1408000c5000700e040800067
:100c1000f1408000c20007000041800011418000c7
:100c2000bf000700650207000428ef002040800095
:100c3000e50f500023003c0080802000c583200089
:100c40004485200043822000214080002240800013
:100c50000201e8004211dd0002014000c208dd008f
:100c600081804200b2187800a210780021408000f4
:100c7000224080000201e8004211dd000201400034
:100c8000c208dd0081004200b2187800a21078008e
:100c900021408000224080000201e8004211dd0076
:100ca00002014000c208dd0081804100b2187800d6
:100cb000a21078000428ec0021408000e58f50004d
:100cc000e1ff340020032000300007008400a90069
:100cd0003400f9004f03be004f02be004f01be00ba
:100ce0004f00be003600f900004006000040da0068
:080cf0000000fe0000000500f9
:020000040000fa
:100cf800f08f2f004427b600d0ff29006019880024
:100d0800e0ff2f0000168800c8e2a800c922a90049
:100d18001010200020168800cc22ef002023ef00be
:100d28002223ef002423ef00100020004019880040
:100d3800000e20002023b700f10f2e00201980009c
:100d48008080600000a02000010070002019880049
:100d580020c0b30024e3b70085a0a90095a0a9008e
:100d680021e3a8008200a90080ff2f00a400b6009c
:100d78006000b300200588008400a9009400a80042
:100d880000000600889fbe00800440004240a90081
:100d9800180034000004eb000602070005020700f3
:100da800040207000302070002020700010207000d
:100db80000020700ff010700fe010700fd01070010
:100dc800fc010700fb010700fa010700f901070011
:100dd800f8010700f7010700f6010700f501070011
:100de800f4010700f30107000804e800888f5400a5
:100df800e9ff3c004f04be0000000600c700de000b
:100e080000806800c900dd0000806800cd00de00b9
:100e18000080680000000600889fbe008a9fbe0010
:100e28008004780001057800820578008800200099
:100e38000978a30002003200d7010700010037003b
:100e4800cd0107000804e90002003200898444004b
:100e5800f7ff3700880020000a78a300020032005c
:100e6800cd01070001003700c30107000804e900ad
:100e7800020032000a054500f7ff3700880020000d
:100e88000b78a30002003200c301070001003700fd
:100e9800b90107000804e900020032008b8545000b
:100ea800f7ff37004f05be004f04be0000000600e4
:100eb800610bb900483add00c832de0085027200d5
:100ec8004832dd00cf91de0002017200838172009a
:100ed800cf80de00c000dd000000200000007100af
:100ee80081807100000006000180fb000000060000
:100ef800c809de00480add004801de000201720070
:100f08008280fb0001007800000006008080fb0062
:100f18000100780000000600889fbe008a9fbe007e
:100f28000004be00f0ff0700800578000800be003e
:100f3800efff0700000578000800be00f3ff070078
:100f4800000178008a0078000b007800b2ff0700e3
:100f58004f05be004f04be0000000600fa87470098
:100f6800889fbe008a9fbe008c9fbe008e1f78009f
:100f78005fff07000000eb00a0b79f00f10b200007
:100f880091b79f00f2fd2f000281470082bf9f00aa
:100f9800afe19700e1c16100a3df9f001fb2970096
:100fa8000400d10061006000b0df9f004220de0035
:100fb80061006000c0df9f004320de006100600028
:100fc800d0df9f004420de0061006000e0df9f006a
:100fd8004520de0061006000f0df9f0094fd2f00d7
:100fe8000f024200418220006033b8005404e00040
:100ff800110032002023a8002003ab00feff3200be
:1010080000188000670060006101b800858020003a
:10101800b50f5100a58f5900f6ff3e000000e00013
:10102800f4ff32004200dd0000804200b018780072
:10103800a0107800010037008688be00e4804000d8
:101048000fb89700800f5200e8ff3a000185200092
:1010580081b79f000000eb00c38320004201dd0040
:10106800028141001202be0084a8be000000e80010
:10107800e60f5000f9ff3a008002eb00c5b79f0069
:101088004600370064054500dab79f001a04be0021
:101098000800be0094ff0700800678000800be0024
:1010a80093ff0700000678000800be0097ff0700be
:1010b80080057800efb097005104be00e1b79f00ab
:1010c8000800be0088ff0700000778000800be007f
:1010d80087ff0700f0b79f000800be008bff0700de
:1010e8008e8f5600020034008d06e9000300370099
:1010f8008e8f560001003d008d06e8007fb19700f5
:10110800820f5600020034000c06e9000400370084
:10111800ffb19700830f560001003d000c06e80060
:10112800808f5500020034008b05e900030037006a
:10113800808f550001003d008b05e8000b01780009
:101148008c0078000d00780059ff07005fb2970007
:10115800008abe0085862000850f5500c9ff3a0029
:10116800788452005800be006bff0700808620007c
:10117800800f5400fbff3a000e01070040002000da
:1011880000ff0700cfb097008100e800c1b79f00bb
:10119800f00f2000808f50002500320002822000ce
:1011a800b2b79f00e2b79f000a852000b5ff37005d
:1011b80031408000e68f5000050032000fff070025
:1011c800e10060000018a3000400320002003700ac
:1011d8008b007800080078008100e8000028a30050
:1011e800010032008100e8000038a300010032004d
:1011f8008100e8000048a300010032008100e800f7
:101208000058a300010032008100e800324080004d
:10121800e60f51000c003200afb1970003016800df
:101228000801610008003a008a00780006003700cb
:101238000000eb001b002000f80320000005eb0075
:10124800800078001fb0970034408000810f520062
:10125800d7ff3c0090b79f000000eb00c48320003c
:101268008fb09700bfb297005501be004203dd0062
:1012780006034200028bbe0082a8be000000e80000
:10128800e60f5000f8ff3a00803e2000bdfe070040
:101298009fb29700a5b79f003dff3700e18f500030
:1012a80006003a000001eb008000eb00dafe0700c0
:1012b80040002000b3fe070010003700e28f500006
:1012c80007003a000001eb00800078000000eb0006
:1012d800d1fe070040002000aafe070007003700e3
:1012e800e38f500005003a00000178006000b80064
:1012f800c9fe070040002000a2fe0700000006000b
:10130800889fbe008a1f7800f80f2000190020006f
:101318000800be00e1ff07000804e900e10f4400ef
:10132800fbff3a000005eb00380020000910200000
:10133800880078000a007800d8ff07000a05e8004e
:10134800890f5500faff3a00f80f200039002000f5
:101358000800be00d1ff07000804e900e10f4400bf
:10136800fbff3a000005eb001800200009102000e0
:10137800880078000a007800c8ff07000a05e8001e
:10138800890f5500faff3a004f0578004f04be0058
:1013980000000600f20f2000000151008000eb0061
:1013a8009dfe07004000200076fe070000000600b2
:1013b800889fbe00f80f200008007800f5ff07009e
:1013c8000804e900e10f4400fbff3a000004eb00c9
:1013d8000910200008007800eeff07000804e80064
:1013e800890f5400fbff3a004f04be0000000600be
:1013f80000c0ea0041c5b300814f500008003e001c
:101408000080fb006301b900d1ff2f000180b90003
:10141800f00fb0008000eb00a5fe070019003700b0
:1014280091cab300814f50000b003e0081c0e80014
:10143800014040000080fb00d2ff2f000281b9006c
:10144800f20fb0006300b900800078000000eb00e4
:1014580097fe07000b00370061c5b300014240004a
:101468000482fb00d0ff2f0000a0b900f10f20007c
:10147800808040006322b9000001eb00040078007e
:101488008bfe070000000600889fbe008a1f7800b8
:101498000004eb00890020000a10200008407800b2
:1014a800d3ff07009cfe07000900780035fe0700ff
:1014b8000804e8008a0f5400f8ff3a00f80f2000eb
:1014c8008900200008407800c9ff070092fe070045
:1014d800090078002bfe07000804e900e10f44002a
:1014e800f8ff3a004f0578004f04be0000000600e0
:020000040000fa
:1014f800080800003400000002000000030000009b
:1015080000ffff00ff00660066660000ffff660040
:1015180000000000000000000000000000000000c3
:1015280000000000ff000000ff000000ff000000b6
:1015380000ff0000ff00ff00ff00000000ffff00a9
:10154800000000003c08000030000000000000001f
:101558000008000006000000000000000608000067
:10156800020000000200000005000000000000006a
:020000040000fa
:10157800c402aa00feff3700c422ec0003000900e1
:1015880000000000c422ef00050009000000000070
:101598000000060000000000c422ec00080009005a
:1015a80000000000c422ef00010009000000000054
:1015b80000000600c422ef0020030900000000001c
:0415c8000000060019
:020000040000fa
:020000040001f9
:0457f8002ff9000085
:020000040000fa
:020000040001f9
:0457fc007f3f0000eb
:00000001FF
